{
  "contractName": "ProductRegistry",
  "abi": [
    {
      "inputs": [
        {
          "internalType": "address",
          "name": "_userRegistry",
          "type": "address"
        }
      ],
      "stateMutability": "nonpayable",
      "type": "constructor"
    },
    {
      "inputs": [
        {
          "internalType": "uint256",
          "name": "_id",
          "type": "uint256"
        },
        {
          "internalType": "string",
          "name": "_name",
          "type": "string"
        },
        {
          "internalType": "uint256",
          "name": "_price",
          "type": "uint256"
        },
        {
          "internalType": "string",
          "name": "_description",
          "type": "string"
        },
        {
          "internalType": "uint256",
          "name": "_quantity",
          "type": "uint256"
        }
      ],
      "name": "addProduct",
      "outputs": [],
      "stateMutability": "nonpayable",
      "type": "function"
    },
    {
      "inputs": [
        {
          "internalType": "uint256",
          "name": "_id",
          "type": "uint256"
        },
        {
          "internalType": "string",
          "name": "_name",
          "type": "string"
        },
        {
          "internalType": "uint256",
          "name": "_price",
          "type": "uint256"
        },
        {
          "internalType": "string",
          "name": "_description",
          "type": "string"
        },
        {
          "internalType": "uint256",
          "name": "_quantity",
          "type": "uint256"
        }
      ],
      "name": "editProduct",
      "outputs": [],
      "stateMutability": "nonpayable",
      "type": "function"
    },
    {
      "inputs": [
        {
          "internalType": "uint256",
          "name": "_id",
          "type": "uint256"
        }
      ],
      "name": "viewProduct",
      "outputs": [
        {
          "internalType": "string",
          "name": "",
          "type": "string"
        },
        {
          "internalType": "uint256",
          "name": "",
          "type": "uint256"
        },
        {
          "internalType": "string",
          "name": "",
          "type": "string"
        },
        {
          "internalType": "uint256",
          "name": "",
          "type": "uint256"
        }
      ],
      "stateMutability": "view",
      "type": "function",
      "constant": true
    },
    {
      "inputs": [
        {
          "internalType": "uint256",
          "name": "_id",
          "type": "uint256"
        }
      ],
      "name": "deleteProduct",
      "outputs": [],
      "stateMutability": "nonpayable",
      "type": "function"
    },
    {
      "inputs": [],
      "name": "viewAllProducts",
      "outputs": [
        {
          "components": [
            {
              "internalType": "string",
              "name": "name",
              "type": "string"
            },
            {
              "internalType": "uint256",
              "name": "price",
              "type": "uint256"
            },
            {
              "internalType": "string",
              "name": "description",
              "type": "string"
            },
            {
              "internalType": "uint256",
              "name": "quantity",
              "type": "uint256"
            }
          ],
          "internalType": "struct ProductRegistry.Product[]",
          "name": "",
          "type": "tuple[]"
        }
      ],
      "stateMutability": "view",
      "type": "function",
      "constant": true
    }
  ],
  "bytecode": "0x60806040523480156200001157600080fd5b506040516200191538038062001915833981810160405281019062000037919062000096565b80600160006101000a81548173ffffffffffffffffffffffffffffffffffffffff021916908373ffffffffffffffffffffffffffffffffffffffff1602179055505062000110565b6000815190506200009081620000f6565b92915050565b600060208284031215620000a957600080fd5b6000620000b9848285016200007f565b91505092915050565b6000620000cf82620000d6565b9050919050565b600073ffffffffffffffffffffffffffffffffffffffff82169050919050565b6200010181620000c2565b81146200010d57600080fd5b50565b6117f580620001206000396000f3fe608060405234801561001057600080fd5b50600436106100575760003560e01c80635b1389af1461005c578063649453871461007a578063cf90477014610096578063eafd4bbd146100b2578063ed90c7b7146100e5575b600080fd5b610064610101565b6040516100719190611435565b60405180910390f35b610094600480360381019061008f91906110a5565b6103c5565b005b6100b060048036038101906100ab91906110a5565b6106a9565b005b6100cc60048036038101906100c7919061107c565b61098e565b6040516100dc9493929190611479565b60405180910390f35b6100ff60048036038101906100fa919061107c565b610b6b565b005b6060600080600190505b6103e88111610153576000806000838152602001908152602001600020600101541461014057818061013c906116b1565b9250505b808061014b906116b1565b91505061010b565b5060008167ffffffffffffffff811115610196577f4e487b7100000000000000000000000000000000000000000000000000000000600052604160045260246000fd5b6040519080825280602002602001820160405280156101cf57816020015b6101bc610e0d565b8152602001906001900390816101b45790505b509050600080600190505b6103e881116103bb57600080600083815260200190815260200160002060010154146103a85760008082815260200190815260200160002060405180608001604052908160008201805461022d9061167f565b80601f01602080910402602001604051908101604052809291908181526020018280546102599061167f565b80156102a65780601f1061027b576101008083540402835291602001916102a6565b820191906000526020600020905b81548152906001019060200180831161028957829003601f168201915b50505050508152602001600182015481526020016002820180546102c99061167f565b80601f01602080910402602001604051908101604052809291908181526020018280546102f59061167f565b80156103425780601f1061031757610100808354040283529160200191610342565b820191906000526020600020905b81548152906001019060200180831161032557829003601f168201915b5050505050815260200160038201548152505083838151811061038e577f4e487b7100000000000000000000000000000000000000000000000000000000600052603260045260246000fd5b602002602001018190525081806103a4906116b1565b9250505b80806103b3906116b1565b9150506101da565b5081935050505090565b600160028111156103ff577f4e487b7100000000000000000000000000000000000000000000000000000000600052602160045260246000fd5b600160009054906101000a900473ffffffffffffffffffffffffffffffffffffffff1673ffffffffffffffffffffffffffffffffffffffff16637ba20a4d600160009054906101000a900473ffffffffffffffffffffffffffffffffffffffff1673ffffffffffffffffffffffffffffffffffffffff1663681f3e6d6040518163ffffffff1660e01b815260040160006040518083038186803b1580156104a557600080fd5b505afa1580156104b9573d6000803e3d6000fd5b505050506040513d6000823e3d601f19601f820116820180604052508101906104e2919061103b565b6040518263ffffffff1660e01b81526004016104fe9190611457565b60206040518083038186803b15801561051657600080fd5b505afa15801561052a573d6000803e3d6000fd5b505050506040513d601f19601f8201168201806040525081019061054e9190611012565b6002811115610586577f4e487b7100000000000000000000000000000000000000000000000000000000600052602160045260246000fd5b146105c6576040517f08c379a00000000000000000000000000000000000000000000000000000000081526004016105bd9061152c565b60405180910390fd5b6000806000878152602001908152602001600020600101541461061e576040517f08c379a00000000000000000000000000000000000000000000000000000000081526004016106159061150c565b60405180910390fd5b604051806080016040528085815260200184815260200183815260200182815250600080878152602001908152602001600020600082015181600001908051906020019061066d929190610e35565b50602082015181600101556040820151816002019080519060200190610694929190610e35565b50606082015181600301559050505050505050565b600160028111156106e3577f4e487b7100000000000000000000000000000000000000000000000000000000600052602160045260246000fd5b600160009054906101000a900473ffffffffffffffffffffffffffffffffffffffff1673ffffffffffffffffffffffffffffffffffffffff16637ba20a4d600160009054906101000a900473ffffffffffffffffffffffffffffffffffffffff1673ffffffffffffffffffffffffffffffffffffffff1663681f3e6d6040518163ffffffff1660e01b815260040160006040518083038186803b15801561078957600080fd5b505afa15801561079d573d6000803e3d6000fd5b505050506040513d6000823e3d601f19601f820116820180604052508101906107c6919061103b565b6040518263ffffffff1660e01b81526004016107e29190611457565b60206040518083038186803b1580156107fa57600080fd5b505afa15801561080e573d6000803e3d6000fd5b505050506040513d601f19601f820116820180604052508101906108329190611012565b600281111561086a577f4e487b7100000000000000000000000000000000000000000000000000000000600052602160045260246000fd5b146108aa576040517f08c379a00000000000000000000000000000000000000000000000000000000081526004016108a19061154c565b60405180910390fd5b6000806000878152602001908152602001600020600101541415610903576040517f08c379a00000000000000000000000000000000000000000000000000000000081526004016108fa906114cc565b60405180910390fd5b6040518060800160405280858152602001848152602001838152602001828152506000808781526020019081526020016000206000820151816000019080519060200190610952929190610e35565b50602082015181600101556040820151816002019080519060200190610979929190610e35565b50606082015181600301559050505050505050565b6060600060606000806000808781526020019081526020016000206001015414156109ee576040517f08c379a00000000000000000000000000000000000000000000000000000000081526004016109e5906114cc565b60405180910390fd5b6000806000878152602001908152602001600020604051806080016040529081600082018054610a1d9061167f565b80601f0160208091040260200160405190810160405280929190818152602001828054610a499061167f565b8015610a965780601f10610a6b57610100808354040283529160200191610a96565b820191906000526020600020905b815481529060010190602001808311610a7957829003601f168201915b5050505050815260200160018201548152602001600282018054610ab99061167f565b80601f0160208091040260200160405190810160405280929190818152602001828054610ae59061167f565b8015610b325780601f10610b0757610100808354040283529160200191610b32565b820191906000526020600020905b815481529060010190602001808311610b1557829003601f168201915b50505050508152602001600382015481525050905080600001518160200151826040015183606001519450945094509450509193509193565b60016002811115610ba5577f4e487b7100000000000000000000000000000000000000000000000000000000600052602160045260246000fd5b600160009054906101000a900473ffffffffffffffffffffffffffffffffffffffff1673ffffffffffffffffffffffffffffffffffffffff16637ba20a4d600160009054906101000a900473ffffffffffffffffffffffffffffffffffffffff1673ffffffffffffffffffffffffffffffffffffffff1663681f3e6d6040518163ffffffff1660e01b815260040160006040518083038186803b158015610c4b57600080fd5b505afa158015610c5f573d6000803e3d6000fd5b505050506040513d6000823e3d601f19601f82011682018060405250810190610c88919061103b565b6040518263ffffffff1660e01b8152600401610ca49190611457565b60206040518083038186803b158015610cbc57600080fd5b505afa158015610cd0573d6000803e3d6000fd5b505050506040513d601f19601f82011682018060405250810190610cf49190611012565b6002811115610d2c577f4e487b7100000000000000000000000000000000000000000000000000000000600052602160045260246000fd5b14610d6c576040517f08c379a0000000000000000000000000000000000000000000000000000000008152600401610d63906114ec565b60405180910390fd5b6000806000838152602001908152602001600020600101541415610dc5576040517f08c379a0000000000000000000000000000000000000000000000000000000008152600401610dbc906114cc565b60405180910390fd5b60008082815260200190815260200160002060008082016000610de89190610ebb565b6001820160009055600282016000610e009190610ebb565b6003820160009055505050565b6040518060800160405280606081526020016000815260200160608152602001600081525090565b828054610e419061167f565b90600052602060002090601f016020900481019282610e635760008555610eaa565b82601f10610e7c57805160ff1916838001178555610eaa565b82800160010185558215610eaa579182015b82811115610ea9578251825591602001919060010190610e8e565b5b509050610eb79190610efb565b5090565b508054610ec79061167f565b6000825580601f10610ed95750610ef8565b601f016020900490600052602060002090810190610ef79190610efb565b5b50565b5b80821115610f14576000816000905550600101610efc565b5090565b6000610f2b610f268461159d565b61156c565b905082815260208101848484011115610f4357600080fd5b610f4e84828561163d565b509392505050565b6000610f69610f648461159d565b61156c565b905082815260208101848484011115610f8157600080fd5b610f8c84828561164c565b509392505050565b600081519050610fa381611798565b92915050565b600082601f830112610fba57600080fd5b8135610fca848260208601610f18565b91505092915050565b600082601f830112610fe457600080fd5b8151610ff4848260208601610f56565b91505092915050565b60008135905061100c816117a8565b92915050565b60006020828403121561102457600080fd5b600061103284828501610f94565b91505092915050565b60006020828403121561104d57600080fd5b600082015167ffffffffffffffff81111561106757600080fd5b61107384828501610fd3565b91505092915050565b60006020828403121561108e57600080fd5b600061109c84828501610ffd565b91505092915050565b600080600080600060a086880312156110bd57600080fd5b60006110cb88828901610ffd565b955050602086013567ffffffffffffffff8111156110e857600080fd5b6110f488828901610fa9565b945050604061110588828901610ffd565b935050606086013567ffffffffffffffff81111561112257600080fd5b61112e88828901610fa9565b925050608061113f88828901610ffd565b9150509295509295909350565b600061115883836113ad565b905092915050565b600061116b826115dd565b6111758185611600565b935083602082028501611187856115cd565b8060005b858110156111c357848403895281516111a4858261114c565b94506111af836115f3565b925060208a0199505060018101905061118b565b50829750879550505050505092915050565b60006111e0826115e8565b6111ea8185611611565b93506111fa81856020860161164c565b61120381611787565b840191505092915050565b6000611219826115e8565b6112238185611622565b935061123381856020860161164c565b61123c81611787565b840191505092915050565b6000611254601683611622565b91507f50726f6475637420646f6573206e6f74206578697374000000000000000000006000830152602082019050919050565b6000611294602283611622565b91507f4f6e6c7920737570706c696572732063616e2064656c6574652070726f64756360008301527f74730000000000000000000000000000000000000000000000000000000000006020830152604082019050919050565b60006112fa601983611622565b91507f50726f6475637420494420616c726561647920657869737473000000000000006000830152602082019050919050565b600061133a601f83611622565b91507f4f6e6c7920737570706c696572732063616e206164642070726f6475637473006000830152602082019050919050565b600061137a602083611622565b91507f4f6e6c7920737570706c696572732063616e20656469742070726f64756374736000830152602082019050919050565b600060808301600083015184820360008601526113ca82826111d5565b91505060208301516113df6020860182611417565b50604083015184820360408601526113f782826111d5565b915050606083015161140c6060860182611417565b508091505092915050565b61142081611633565b82525050565b61142f81611633565b82525050565b6000602082019050818103600083015261144f8184611160565b905092915050565b60006020820190508181036000830152611471818461120e565b905092915050565b60006080820190508181036000830152611493818761120e565b90506114a26020830186611426565b81810360408301526114b4818561120e565b90506114c36060830184611426565b95945050505050565b600060208201905081810360008301526114e581611247565b9050919050565b6000602082019050818103600083015261150581611287565b9050919050565b60006020820190508181036000830152611525816112ed565b9050919050565b600060208201905081810360008301526115458161132d565b9050919050565b600060208201905081810360008301526115658161136d565b9050919050565b6000604051905081810181811067ffffffffffffffff8211171561159357611592611758565b5b8060405250919050565b600067ffffffffffffffff8211156115b8576115b7611758565b5b601f19601f8301169050602081019050919050565b6000819050602082019050919050565b600081519050919050565b600081519050919050565b6000602082019050919050565b600082825260208201905092915050565b600082825260208201905092915050565b600082825260208201905092915050565b6000819050919050565b82818337600083830152505050565b60005b8381101561166a57808201518184015260208101905061164f565b83811115611679576000848401525b50505050565b6000600282049050600182168061169757607f821691505b602082108114156116ab576116aa611729565b5b50919050565b60006116bc82611633565b91507fffffffffffffffffffffffffffffffffffffffffffffffffffffffffffffffff8214156116ef576116ee6116fa565b5b600182019050919050565b7f4e487b7100000000000000000000000000000000000000000000000000000000600052601160045260246000fd5b7f4e487b7100000000000000000000000000000000000000000000000000000000600052602260045260246000fd5b7f4e487b7100000000000000000000000000000000000000000000000000000000600052604160045260246000fd5b6000601f19601f8301169050919050565b600381106117a557600080fd5b50565b6117b181611633565b81146117bc57600080fd5b5056fea264697066735822122031bfd0d264c4c55d22a37179f247c8bc51eef3b23a8f0826cc333730f9e2f83764736f6c63430008000033",
  "immutableReferences": {},
  "source": "// SPDX-License-Identifier: MIT\r\npragma solidity ^0.8.0;\r\n\r\nimport \"./userRegistry.sol\";\r\n\r\ncontract ProductRegistry {\r\n    struct Product {\r\n        string name;\r\n        uint256 price;\r\n        string description;\r\n        uint256 quantity;\r\n    }\r\n\r\n    mapping(uint256 => Product) private products;\r\n    UserRegistry private userRegistry;\r\n\r\n    constructor(address _userRegistry) {\r\n        userRegistry = UserRegistry(_userRegistry);\r\n    }\r\n\r\n    function addProduct(uint256 _id, string memory _name, uint256 _price, string memory _description, uint256 _quantity) public {\r\n        require(userRegistry.getUserType(userRegistry.getUsername()) == UserType.Supplier, \"Only suppliers can add products\");\r\n        require(products[_id].price == 0, \"Product ID already exists\");\r\n        products[_id] = Product(_name, _price, _description, _quantity);\r\n    }\r\n\r\n    function editProduct(uint256 _id, string memory _name, uint256 _price, string memory _description, uint256 _quantity) public {\r\n        require(userRegistry.getUserType(userRegistry.getUsername()) == UserType.Supplier, \"Only suppliers can edit products\");\r\n        require(products[_id].price != 0, \"Product does not exist\");\r\n        products[_id] = Product(_name, _price, _description, _quantity);\r\n    }\r\n\r\n    function viewProduct(uint256 _id) public view returns (string memory, uint256, string memory, uint256) {\r\n        require(products[_id].price != 0, \"Product does not exist\");\r\n        Product memory product = products[_id];\r\n        return (product.name, product.price, product.description, product.quantity);\r\n    }\r\n\r\n    function deleteProduct(uint256 _id) public {\r\n        require(userRegistry.getUserType(userRegistry.getUsername()) == UserType.Supplier, \"Only suppliers can delete products\");\r\n        require(products[_id].price != 0, \"Product does not exist\");\r\n        delete products[_id];\r\n    }\r\n\r\n    function viewAllProducts() public view returns (Product[] memory) {\r\n        uint256 count = 0;\r\n        for (uint256 i = 1; i <= 1000; i++) {\r\n            if (products[i].price != 0) {\r\n                count++;\r\n            }\r\n        }\r\n        Product[] memory allProducts = new Product[](count);\r\n        uint256 index = 0;\r\n        for (uint256 i = 1; i <= 1000; i++) {\r\n            if (products[i].price != 0) {\r\n                allProducts[index] = products[i];\r\n                index++;\r\n            }\r\n        }\r\n        return allProducts;\r\n    }\r\n}\r\n",
  "sourcePath": "F:\\FYP\\inventorysharing\\flask\\truffle\\contracts\\productRegistry.sol",
  "compiler": {
    "name": "solc",
    "version": "0.8.0+commit.c7dfd78e.Emscripten.clang"
  },
  "schemaVersion": "3.4.13",
  "updatedAt": "2023-04-02T07:31:04.652Z",
  "networkType": "ethereum",
  "devdoc": {
    "kind": "dev",
    "methods": {},
    "version": 1
  },
  "userdoc": {
    "kind": "user",
    "methods": {},
    "version": 1
  }
}