{
  "contractName": "UserRegistry",
  "abi": [
    {
      "inputs": [
        {
          "internalType": "string",
          "name": "username",
          "type": "string"
        },
        {
          "internalType": "enum UserType",
          "name": "userType",
          "type": "uint8"
        }
      ],
      "name": "registerUser",
      "outputs": [],
      "stateMutability": "nonpayable",
      "type": "function"
    },
    {
      "inputs": [
        {
          "internalType": "string",
          "name": "username",
          "type": "string"
        }
      ],
      "name": "getUserType",
      "outputs": [
        {
          "internalType": "enum UserType",
          "name": "",
          "type": "uint8"
        }
      ],
      "stateMutability": "view",
      "type": "function",
      "constant": true
    },
    {
      "inputs": [
        {
          "internalType": "string",
          "name": "username",
          "type": "string"
        }
      ],
      "name": "getAddress",
      "outputs": [
        {
          "internalType": "address",
          "name": "",
          "type": "address"
        }
      ],
      "stateMutability": "view",
      "type": "function",
      "constant": true
    },
    {
      "inputs": [],
      "name": "getUsername",
      "outputs": [
        {
          "internalType": "string",
          "name": "",
          "type": "string"
        }
      ],
      "stateMutability": "view",
      "type": "function",
      "constant": true
    }
  ],
  "bytecode": "0x608060405234801561001057600080fd5b50610ef9806100206000396000f3fe608060405234801561001057600080fd5b506004361061004c5760003560e01c8063338e12eb14610051578063681f3e6d1461006d5780637ba20a4d1461008b578063bf40fac1146100bb575b600080fd5b61006b60048036038101906100669190610a43565b6100eb565b005b610075610387565b6040516100829190610c2c565b60405180910390f35b6100a560048036038101906100a09190610a02565b6104a6565b6040516100b29190610c11565b60405180910390f35b6100d560048036038101906100d09190610a02565b6106c4565b6040516100e29190610bf6565b60405180910390f35b600082511161012f576040517f08c379a000000000000000000000000000000000000000000000000000000000815260040161012690610c4e565b60405180910390fd5b600073ffffffffffffffffffffffffffffffffffffffff166000836040516101579190610bdf565b908152602001604051809103902060000160009054906101000a900473ffffffffffffffffffffffffffffffffffffffff1673ffffffffffffffffffffffffffffffffffffffff16146101df576040517f08c379a00000000000000000000000000000000000000000000000000000000081526004016101d690610c8e565b60405180910390fd5b6000339050600060405180606001604052808373ffffffffffffffffffffffffffffffffffffffff168152602001846002811115610246577f4e487b7100000000000000000000000000000000000000000000000000000000600052602160045260246000fd5b8152602001858152509050806000856040516102629190610bdf565b908152602001604051809103902060008201518160000160006101000a81548173ffffffffffffffffffffffffffffffffffffffff021916908373ffffffffffffffffffffffffffffffffffffffff16021790555060208201518160000160146101000a81548160ff02191690836002811115610308577f4e487b7100000000000000000000000000000000000000000000000000000000600052602160045260246000fd5b021790555060408201518160010190805190602001906103299291906108e2565b5090505083600160008473ffffffffffffffffffffffffffffffffffffffff1673ffffffffffffffffffffffffffffffffffffffff16815260200190815260200160002090805190602001906103809291906108e2565b5050505050565b606060003390506000600160008373ffffffffffffffffffffffffffffffffffffffff1673ffffffffffffffffffffffffffffffffffffffff16815260200190815260200160002080546103da90610dcf565b80601f016020809104026020016040519081016040528092919081815260200182805461040690610dcf565b80156104535780601f1061042857610100808354040283529160200191610453565b820191906000526020600020905b81548152906001019060200180831161043657829003601f168201915b50505050509050600081511161049e576040517f08c379a000000000000000000000000000000000000000000000000000000000815260040161049590610c6e565b60405180910390fd5b809250505090565b6000806000836040516104b99190610bdf565b90815260200160405180910390206040518060600160405290816000820160009054906101000a900473ffffffffffffffffffffffffffffffffffffffff1673ffffffffffffffffffffffffffffffffffffffff1673ffffffffffffffffffffffffffffffffffffffff1681526020016000820160149054906101000a900460ff166002811115610573577f4e487b7100000000000000000000000000000000000000000000000000000000600052602160045260246000fd5b60028111156105ab577f4e487b7100000000000000000000000000000000000000000000000000000000600052602160045260246000fd5b81526020016001820180546105bf90610dcf565b80601f01602080910402602001604051908101604052809291908181526020018280546105eb90610dcf565b80156106385780601f1061060d57610100808354040283529160200191610638565b820191906000526020600020905b81548152906001019060200180831161061b57829003601f168201915b5050505050815250509050600073ffffffffffffffffffffffffffffffffffffffff16816000015173ffffffffffffffffffffffffffffffffffffffff1614156106b7576040517f08c379a00000000000000000000000000000000000000000000000000000000081526004016106ae90610c6e565b60405180910390fd5b8060200151915050919050565b6000806000836040516106d79190610bdf565b90815260200160405180910390206040518060600160405290816000820160009054906101000a900473ffffffffffffffffffffffffffffffffffffffff1673ffffffffffffffffffffffffffffffffffffffff1673ffffffffffffffffffffffffffffffffffffffff1681526020016000820160149054906101000a900460ff166002811115610791577f4e487b7100000000000000000000000000000000000000000000000000000000600052602160045260246000fd5b60028111156107c9577f4e487b7100000000000000000000000000000000000000000000000000000000600052602160045260246000fd5b81526020016001820180546107dd90610dcf565b80601f016020809104026020016040519081016040528092919081815260200182805461080990610dcf565b80156108565780601f1061082b57610100808354040283529160200191610856565b820191906000526020600020905b81548152906001019060200180831161083957829003601f168201915b5050505050815250509050600073ffffffffffffffffffffffffffffffffffffffff16816000015173ffffffffffffffffffffffffffffffffffffffff1614156108d5576040517f08c379a00000000000000000000000000000000000000000000000000000000081526004016108cc90610c6e565b60405180910390fd5b8060000151915050919050565b8280546108ee90610dcf565b90600052602060002090601f0160209004810192826109105760008555610957565b82601f1061092957805160ff1916838001178555610957565b82800160010185558215610957579182015b8281111561095657825182559160200191906001019061093b565b5b5090506109649190610968565b5090565b5b80821115610981576000816000905550600101610969565b5090565b600061099861099384610cdf565b610cae565b9050828152602081018484840111156109b057600080fd5b6109bb848285610d8d565b509392505050565b6000813590506109d281610eb3565b92915050565b600082601f8301126109e957600080fd5b81356109f9848260208601610985565b91505092915050565b600060208284031215610a1457600080fd5b600082013567ffffffffffffffff811115610a2e57600080fd5b610a3a848285016109d8565b91505092915050565b60008060408385031215610a5657600080fd5b600083013567ffffffffffffffff811115610a7057600080fd5b610a7c858286016109d8565b9250506020610a8d858286016109c3565b9150509250929050565b610aa081610d36565b82525050565b610aaf81610d7b565b82525050565b6000610ac082610d0f565b610aca8185610d1a565b9350610ada818560208601610d9c565b610ae381610e8e565b840191505092915050565b6000610af982610d0f565b610b038185610d2b565b9350610b13818560208601610d9c565b80840191505092915050565b6000610b2c601883610d1a565b91507f557365726e616d652063616e6e6f7420626520656d70747900000000000000006000830152602082019050919050565b6000610b6c601383610d1a565b91507f5573657220646f6573206e6f74206578697374000000000000000000000000006000830152602082019050919050565b6000610bac601983610d1a565b91507f557365726e616d6520697320616c72656164792074616b656e000000000000006000830152602082019050919050565b6000610beb8284610aee565b915081905092915050565b6000602082019050610c0b6000830184610a97565b92915050565b6000602082019050610c266000830184610aa6565b92915050565b60006020820190508181036000830152610c468184610ab5565b905092915050565b60006020820190508181036000830152610c6781610b1f565b9050919050565b60006020820190508181036000830152610c8781610b5f565b9050919050565b60006020820190508181036000830152610ca781610b9f565b9050919050565b6000604051905081810181811067ffffffffffffffff82111715610cd557610cd4610e5f565b5b8060405250919050565b600067ffffffffffffffff821115610cfa57610cf9610e5f565b5b601f19601f8301169050602081019050919050565b600081519050919050565b600082825260208201905092915050565b600081905092915050565b6000610d4182610d5b565b9050919050565b6000819050610d5682610e9f565b919050565b600073ffffffffffffffffffffffffffffffffffffffff82169050919050565b6000610d8682610d48565b9050919050565b82818337600083830152505050565b60005b83811015610dba578082015181840152602081019050610d9f565b83811115610dc9576000848401525b50505050565b60006002820490506001821680610de757607f821691505b60208210811415610dfb57610dfa610e30565b5b50919050565b7f4e487b7100000000000000000000000000000000000000000000000000000000600052602160045260246000fd5b7f4e487b7100000000000000000000000000000000000000000000000000000000600052602260045260246000fd5b7f4e487b7100000000000000000000000000000000000000000000000000000000600052604160045260246000fd5b6000601f19601f8301169050919050565b60038110610eb057610eaf610e01565b5b50565b60038110610ec057600080fd5b5056fea2646970667358221220cfde14f1f1ee113483ea969e5b17105968b83e9655256d72052bdae2987ecebc64736f6c63430008000033",
  "immutableReferences": {},
  "source": "// SPDX-License-Identifier: MIT\r\npragma solidity ^0.8.0;\r\n\r\n enum UserType {\r\n        None,\r\n        Supplier,\r\n        Retailer\r\n    }\r\n\r\ncontract UserRegistry {\r\n   \r\n\r\n    struct User {\r\n        address userAddress;\r\n        UserType userType;\r\n        string username;\r\n    }\r\n\r\n    mapping(string => User) private usernameToUser;\r\n    mapping(address => string) private addressToUsername;\r\n\r\n    function registerUser(string memory username, UserType userType) public {\r\n        require(bytes(username).length > 0, \"Username cannot be empty\");\r\n        require(usernameToUser[username].userAddress == address(0), \"Username is already taken\");\r\n        address userAddress = msg.sender;\r\n        User memory user = User(userAddress, userType, username);\r\n        usernameToUser[username] = user;\r\n        addressToUsername[userAddress] = username;\r\n    }\r\n\r\n    function getUserType(string memory username) public view returns (UserType) {\r\n        User memory user = usernameToUser[username];\r\n        require(user.userAddress != address(0), \"User does not exist\");\r\n        return user.userType;\r\n    }\r\n\r\n    function getAddress(string memory username) public view returns (address) {\r\n        User memory user = usernameToUser[username];\r\n        require(user.userAddress != address(0), \"User does not exist\");\r\n        return user.userAddress;\r\n    }\r\n\r\n    function getUsername() public view returns (string memory) {\r\n        address userAddress = msg.sender;\r\n        string memory username = addressToUsername[userAddress];\r\n        require(bytes(username).length > 0, \"User does not exist\");\r\n        return username;\r\n    }\r\n}\r\n",
  "sourcePath": "F:\\FYP\\inventorysharing\\flask\\truffle\\contracts\\userRegistry.sol",
  "compiler": {
    "name": "solc",
    "version": "0.8.0+commit.c7dfd78e.Emscripten.clang"
  },
  "schemaVersion": "3.4.13",
  "updatedAt": "2023-04-02T07:31:04.645Z",
  "networkType": "ethereum",
  "devdoc": {
    "kind": "dev",
    "methods": {},
    "version": 1
  },
  "userdoc": {
    "kind": "user",
    "methods": {},
    "version": 1
  }
}